:1000000045C0000060C000005EC0000042C20000A9
:1000100057C2000008C200001DC2000054C000000A
:1000200052C0000050C000004EC000004CC0000094
:100030004AC0000048C0000046C0000044C00000A4
:1000400042C0000040C000003EC000003CC00000B4
:100050003AC0000038C0000036C0000034C00000C4
:1000600032C0000030C000002EC000002CC00000D4
:100070002AC0000028C0000026C0000024C00000E4
:1000800022C0000020C000001EC0000011241FBEBE
:10009000CFEFD0E1DEBFCDBF11E0A0E0B1E0E8EDF1
:1000A000FBE000E00BBF02C007900D92AA31B10740
:1000B000D9F721E0AAE1B1E001C01D92A432B20754
:1000C000E1F717D187C59CCFCF93DF9300D000D045
:1000D000CDB7DEB7807F982F9C60998388608A8334
:1000E00042E050E0BE016F5F7F4F80910001DED0A3
:1000F0000F900F900F900F90DF91CF910895CF93B5
:10010000DF9300D000D0CDB7DEB7982F907F292F96
:100110002C60298398609A8320E1829FC00111247A
:10012000982F9C609B8388608C8344E050E0BE01E4
:100130006F5F7F4F80910001B9D00F900F900F90AB
:100140000F90DF91CF9108958BD02FEF80E792E051
:10015000215080409040E1F700C0000080E3B4DF10
:100160008FE19EE40197F1F700C0000080E3ACDF6F
:100170008FE891E00197F1F700C0000080E3A4DF71
:100180008FE891E00197F1F700C0000080E29CDF6A
:100190008FE891E00197F1F700C0000088E2AFDF3F
:1001A00087EC90E00197F1F700C0000088E0A7DF3E
:1001B00087EC90E00197F1F700C0000081E09FDF3D
:1001C0008FED9EE20197F1F700C0000086E097DF17
:1001D00087EC90E00197F1F700C000008CE08FDF22
:1001E00087EC90E00197F1F700C000000895CF93ED
:1001F000DF9300D000D0CDB7DEB7982F907F292FA6
:100200002D60298399609A8320E1829FC001112487
:10021000982F9D609B8389608C8344E050E0BE01F1
:100220006F5F7F4F8091000141D00F900F900F9032
:100230000F90DF91CF91089590E4899F600D112474
:10024000862F80685CCF0895CF93DF93EC0102C0C6
:100250002196CDDF88818111FBCFDF91CF91089569
:1002600082B3836082BB88E480937000089594EA2F
:1002700090937400909174009923E4F78093730035
:1002800084E880937400809174008823E4F70895D3
:100290008093730084E880937400809174008823B5
:1002A000E4F7089584E9809374000895EF92FF9233
:1002B0000F931F93CF93DF937B018A01D8DFC0E0B8
:1002C000D0E00CC0F701EC0FFD1F8081E1DF8FE96A
:1002D0009FE00197F1F700C000002196C017D107F9
:1002E00088F3E0DFDF91CF911F910F91FF90EF90A6
:1002F0000895CF93DF9300D0CDB7DEB711BA12B80F
:100300008FEF82BB83B98CE389BF80EA80936A0058
:100310008AE08ABF789418DF60E080E08DDF80910A
:100320000A018F93809109018F930F2EFBE0EF2E2E
:10033000F1E0FF2EF02DFF92EF920EE111E01F93FE
:100340000F936DD1C80180DF63E080E075DFE0913D
:100350001C01F0911D01ED5FFE4F808189831A829F
:10036000CE01019671DF64E080E066DF80910801D4
:100370008F93809107018F93FF92EF921F930F93BA
:100380004ED1C80161DF67E080E056DF80E191E097
:100390005BDF2FEF31EE84E0215030408040E1F709
:1003A00000C0000068E080E047DF809102018F9389
:1003B000809101018F93FF92EF921F930F932FD1A2
:1003C000C80142DF80911A0190911B010FB6F89489
:1003D000DEBF0FBECDBF892BF9F06BE080E02CDFD4
:1003E00082E191E031DF6CE080E026DF80911B014B
:1003F0008F9380911A018F93C7019F93EF92C80149
:100400009F930F930CD1C8011FDF0F900F900F9097
:100410000F900F900F9080CF6BE080E00DDF84E1B4
:1004200091E012DF79CF1F920F920FB60F92112435
:100430008F939F938091090190910A010196909367
:100440000A01809309019F918F910F900FBE0F9029
:100450001F9018951F920F920FB60F9211248F9331
:100460009F9380911C0190911D010196837090785B
:10047000992324F401978C6F9F6F019690931D012F
:1004800080931C019F918F910F900FBE0F901F9032
:1004900018951F920F920FB60F9211248F939F936E
:1004A0008091070190910801019690930801809333
:1004B00007019F918F910F900FBE0F901F9018957D
:1004C0001F920F920FB60F9211240BB60F922F931B
:1004D0003F934F935F936F937F938F939F93AF93CC
:1004E000BF93EF93FF93E0911C01F0911D01ED5F2D
:1004F000FE4F80818B3251F018F48A3269F155C079
:100500008D32B9F08F3209F43FC04FC020910901FC
:1005100030910A018091070190910801820F931F89
:10052000909302018093010110921B0110921A0115
:100530003CC08091090190910A01209107013091FE
:100540000801821B930B909302018093010110928A
:100550001B0110921A0129C04091090150910A0112
:100560002091070130910801429FC001439F900DE7
:10057000529F900D112490930201809301011092DB
:100580001B0110921A0111C08091090190910A017A
:1005900060910701709108011BD070930201609374
:1005A000010190931B0180931A01FF91EF91BF917C
:1005B000AF919F918F917F916F915F914F913F91FB
:1005C0002F910F900BBE0F900FBE0F901F9018959C
:1005D00097FB072E16F4009406D077FD08D00BD0B9
:1005E00007FC05D03EF4909581959F4F0895709536
:1005F00061957F4F0895AA1BBB1B51E107C0AA1F3D
:10060000BB1FA617B70710F0A61BB70B881F991FB3
:100610005A95A9F780959095BC01CD0108950F9347
:100620001F93CF93DF93CDB7DEB72E970FB6F89415
:10063000DEBF0FBECDBF0D891E8986E08C831A8375
:1006400009838FEF9FE79E838D83AE01475E5F4FE7
:100650006F89788DCE01019610D0EF81F885E00F7B
:10066000F11F10822E960FB6F894DEBF0FBECDBFDD
:10067000DF91CF911F910F9108952F923F924F924A
:100680005F926F927F928F929F92AF92BF92CF9222
:10069000DF92EF92FF920F931F93CF93DF93CDB72B
:1006A000DEB72B970FB6F894DEBF0FBECDBF6C013F
:1006B0007B018A01FC0117821682838181FFBFC101
:1006C000CE0101963C01F6019381F70193FD8591DE
:1006D00093FF81917F01882309F4ADC1853239F4FC
:1006E00093FD859193FF81917F01853221F4B601BD
:1006F00090E0D6D1E8CF912C212C312CFFE1F315DD
:10070000D8F08B3279F038F4803279F08332A1F46A
:10071000232D20611DC08D3261F0803369F4232DBB
:10072000216016C0832D8260382EE32DE4603E2EBA
:100730002AC0F32DF8601DC037FC2DC020ED280F16
:100740002A3040F08E32B9F436FC75C1232D206476
:10075000322E19C036FE06C08AE0989E200D112464
:10076000922E11C0EAE02E9E200D1124222EF32D90
:10077000F0623F2E08C08C3621F4832D8068382E1D
:1007800002C0883641F4F70193FD859193FF819172
:100790007F018111B3CF982F9F7D9554933028F41A
:1007A0000C5F1F4F9FE399830DC0833631F0833771
:1007B00071F0833509F055C020C0F801808189832C
:1007C0000E5F1F4F88248394912C530112C028017F
:1007D000F2E04F0E511CF801A080B18036FE03C03C
:1007E000692D70E002C06FEF7FEFC5014ED14C0163
:1007F0008201F32DFF773F2E15C0280122E0420E23
:10080000511CF801A080B18036FE03C0692D70E054
:1008100002C06FEF7FEFC5012DD14C01F32DF068C1
:100820003F2E820133FC19C0822D90E08816990674
:10083000A0F4B60180E290E033D12A94F5CFF5011F
:1008400037FC859137FE81915F01B60190E028D198
:1008500021102A9421E0821A91088114910479F7D9
:10086000E1C0843611F0893639F5F80137FE07C04A
:1008700060817181828193810C5F1F4F08C060810C
:100880007181072E000C880B990B0E5F1F4FF32D03
:10089000FF763F2E97FF09C09095809570956195E2
:1008A0007F4F8F4F9F4FF0683F2E2AE030E0A3012B
:1008B00033D1882E861844C0853731F4232D2F7EFE
:1008C000B22E2AE030E025C0932D997FB92E8F36C5
:1008D000C1F018F4883579F0AEC0803719F0883748
:1008E00021F0A9C0E92FE061BE2EB4FE0DC0FB2DA2
:1008F000F460BF2E09C034FE0AC0292F2660B22E34
:1009000006C028E030E005C020E130E002C020E170
:1009100032E0F801B7FE07C0608171818281938166
:100920000C5F1F4F06C06081718180E090E00E5F18
:100930001F4FA301F1D0882E8618FB2DFF773F2E85
:1009400036FE0DC0232D2E7FA22E891458F434FEBE
:100950000BC032FC09C0832D8E7EA82E05C0B82C9A
:10096000A32C03C0B82C01C0B92CA4FE0FC0FE01FB
:10097000E80DF11D8081803321F49A2D997EA92EF6
:1009800009C0A2FE06C0B394B39404C08A2D867831
:1009900009F0B394A3FC10C0A0FE06C0B21480F40A
:1009A000280C922C9B180DC0B21458F4B60180E2AA
:1009B00090E076D0B394F8CFB21418F42B1802C09C
:1009C000982C212CA4FE0FC0B60180E390E068D0E3
:1009D000A2FE16C0A1FC03C088E790E002C088E533
:1009E00090E0B6010CC08A2D867851F0A1FE02C0BD
:1009F0008BE201C080E2A7FC8DE2B60190E050D00E
:100A0000891430F4B60180E390E04AD09A94F8CF8C
:100A10008A94F301E80DF11D8081B60190E040D089
:100A20008110F6CF222009F44ECEB60180E290E08C
:100A300037D02A94F7CFF6018681978102C08FEFD5
:100A40009FEF2B960FB6F894DEBF0FBECDBFDF91A0
:100A5000CF911F910F91FF90EF90DF90CF90BF90BB
:100A6000AF909F908F907F906F905F904F903F904E
:100A70002F900895FC010590615070400110D8F747
:100A8000809590958E0F9F1F0895FC0161507040D6
:100A900001900110D8F7809590958E0F9F1F0895B3
:100AA0000F931F93CF93DF93FB01238121FD03C09D
:100AB0008FEF9FEF2CC022FF16C046815781248103
:100AC00035814217530744F4A081B1819D012F5F06
:100AD0003F4F318320838C93268137812F5F3F4F97
:100AE0003783268314C08B01EC01FB010084F18560
:100AF000E02D0995892BE1F6D80116968D919C91F0
:100B00001797019617969C938E931697CE01DF91B7
:100B1000CF911F910F910895FA01AA27283051F122
:100B2000203181F1E8946F936E7F6E5F7F4F8F4F1E
:100B30009F4FAF4FB1E03ED0B4E03CD0670F781F7D
:100B4000891F9A1FA11D680F791F8A1F911DA11D62
:100B50006A0F711D811D911DA11D20D009F468949B
:100B60003F912AE0269F11243019305D3193DEF643
:100B7000CF010895462F4770405D4193B3E00FD0F9
:100B8000C9F7F6CF462F4F70405D4A3318F0495DE4
:100B900031FD4052419302D0A9F7EACFB4E0A695C7
:100BA0009795879577956795BA95C9F700976105E9
:100BB000710508959B01AC010A2E0694579547953F
:100BC00037952795BA95C9F7620F731F841F951F34
:080BD000A01D0895F894FFCF69
:100BD8004E02002B2D2A2F01000100252D33640021
:0A0BE8003D002E00202020202000F8
:00000001FF
