S0130000446179325F5461736B30322E737265636D
S11300004EC0000061C000005FC000005DC0000081
S11300105BC0000059C0000057C0000055C000007C
S113002053C0000051C000004FC000004DC000008C
S11300304BC0000049C0000047C0000045C000009C
S113004043C0000041C000003FC000003DC00000AC
S11300503BC0000039C0000037C0000035C00000BC
S113006033C0000031C000002FC000002DC00000CC
S11300702BC0000029C0000027C0000025C00000DC
S113008023C0000021C000001FC000003C02390250
S11300903602330230022D022A02270225021124DD
S11300A01FBECFEFD0E1DEBFCDBF11E0A0E0B1E0D5
S11300B0E4E7FBE000E00BBF02C007900D92AA3119
S11300C0B107D9F7E5D154C59BCFCF93DF9300D0C7
S11300D000D0CDB7DEB7807F982F9C60998388606D
S11300E08A8342E050E0BE016F5F7F4F8091000140
S11300F0DED00F900F900F900F90DF91CF91089565
S1130100CF93DF9300D000D0CDB7DEB7982F907F88
S1130110292F2C60298398609A8320E1829FC00153
S11301201124982F9C609B8388608C8344E050E06A
S1130130BE016F5F7F4F80910001B9D00F900F9087
S11301400F900F90DF91CF9108958BD02FEF80E720
S113015092E0215080409040E1F700C0000080E32D
S1130160B4DF8FE19EE40197F1F700C0000080E363
S1130170ACDF8FE891E00197F1F700C0000080E365
S1130180A4DF8FE891E00197F1F700C0000080E25E
S11301909CDF8FE891E00197F1F700C0000088E24E
S11301A0AFDF87EC90E00197F1F700C0000088E032
S11301B0A7DF87EC90E00197F1F700C0000081E031
S11301C09FDF8FED9EE20197F1F700C0000086E00B
S11301D097DF87EC90E00197F1F700C000008CE016
S11301E08FDF87EC90E00197F1F700C000000895DD
S11301F0CF93DF9300D000D0CDB7DEB7982F907F98
S1130200292F2D60298399609A8320E1829FC00160
S11302101124982F9D609B8389608C8344E050E077
S1130220BE016F5F7F4F8091000141D00F900F900E
S11302300F900F90DF91CF91089590E4899F600D06
S11302401124862F80685CCF0895CF93DF93EC014F
S113025002C02196CDDF88818111FBCFDF91CF9140
S1130260089582B3836082BB88E48093700008950C
S113027094EA90937400909174009923E4F7809326
S1130280730084E880937400809174008823E4F7F9
S113029008958093730084E88093740080917400BF
S11302A08823E4F7089584E9809374000895EF9215
S11302B0FF920F931F93CF93DF937B018A01D8DFC3
S11302C0C0E0D0E00CC0F701EC0FFD1F8081E1DF3E
S11302D08FE99FE00197F1F700C000002196C01755
S11302E0D10788F3E0DFDF91CF911F910F91FF9049
S11302F0EF900895CF92DF92EF92FF920F931F93A6
S1130300CF93DF9300D000D01F92CDB7DEB780E447
S113031087B986B1806486B9349BFECFE4B0F5B06A
S1130320FF92EF9281E091E09F938F938E010F5F94
S11303301F4F1F930F9341D160E080E07EDF86E082
S113034091E083DF60E081E078DFC8017EDF67E071
S113035081E073DFC701880F991F880F991F8E0DE5
S11303609F1D6FEF73E0A2D07F936F938FE091E0B6
S11303709F938F931F930F9320D1C80166DF68E08A
S113038081E05BDF83E191E060DF69E081E055DFDC
S1130390C701A0E0B0E0AC01BD01440F551F661FCA
S11303A0771F440F551F661F771F6A017B01C80E14
S11303B0D91EEA1EFB1EC701B6010F2ECC24CA9417
S11303C0F3E0DF2EE12CF12CF02DA701960181D072
S11303D09B01AC01A4E6B0E0A1D0A701960179D0BD
S11303E03F932F9385E191E09F938F931F930F93F6
S11303F0E4D0C8012ADF2FEF31EE84E021503040F1
S11304008040E1F700C0000084B195B10FB6F894C4
S1130410DEBF0FBECDBF0F900F900F900F900F90C7
S1130420DF91CF911F910F91FF90EF90DF90CF90CC
S1130430089584B195B16FE770E038D069307105E3
S1130440E8F4FB01EA5BFF4F60C01BBA17C080E809
S11304508BBB14C080EC8BBB11C080EE8BBB0EC079
S113046080EF8BBB0BC088EF8BBB08C08CEF8BBBC2
S113047005C08EEF8BBB02C08FEF8BBB2FEF81EEDD
S113048094E0215080409040E1F700C000000895BE
S1130490109261008FEF8ABB80E487B987E886B940
S11304A080E88FBF52DE26DFC4DFFDCF97FB072E27
S11304B016F4009406D077FD08D03AD007FC05D096
S11304C03EF4909581959F4F0895709561957F4F67
S11304D00895052E97FB16F400940FD057FD05D010
S11304E03BD007FC02D046F408C0509540953095A7
S11304F021953F4F4F4F5F4F08959095809570958C
S113050061957F4F8F4F9F4F0895EE0FFF1F00247B
S1130510001C0BBE0790F691E02D09943FD0A59FD7
S1130520900DB49F900DA49F800D911D11240895EA
S1130530AA1BBB1B51E107C0AA1FBB1FA617B70705
S113054010F0A61BB70B881F991F5A95A9F7809521
S11305509095BC01CD010895A1E21A2EAA1BBB1BE4
S1130560FD010DC0AA1FBB1FEE1FFF1FA217B3077B
S1130570E407F50720F0A21BB30BE40BF50B661F91
S1130580771F881F991F1A9469F760957095809555
S113059090959B01AC01BD01CF010895A29FB001CC
S11305A0B39FC001A39F700D811D1124911DB29FA3
S11305B0700D811D1124911D08950F931F93CF93E6
S11305C0DF93CDB7DEB72E970FB6F894DEBF0FBE1C
S11305D0CDBF0D891E8986E08C831A8309838FEF32
S11305E09FE79E838D83AE01475E5F4F6F89788D51
S11305F0CE01019610D0EF81F885E00FF11F108233
S11306002E960FB6F894DEBF0FBECDBFDF91CF910B
S11306101F910F9108952F923F924F925F926F9284
S11306207F928F929F92AF92BF92CF92DF92EF927E
S1130630FF920F931F93CF93DF93CDB7DEB72B9722
S11306400FB6F894DEBF0FBECDBF6C017B018A01EB
S1130650FC0117821682838181FFBFC1CE010196FE
S11306603C01F6019381F70193FD859193FF8191FC
S11306707F01882309F4ADC1853239F493FD859156
S113068093FF81917F01853221F4B60190E0D6D1A8
S1130690E8CF912C212C312CFFE1F315D8F08B32CB
S11306A079F038F4803279F08332A1F4232D20617B
S11306B01DC08D3261F0803369F4232D216016C092
S11306C0832D8260382EE32DE4603E2E2AC0F32D64
S11306D0F8601DC037FC2DC020ED280F2A3040F0F3
S11306E08E32B9F436FC75C1232D2064322E19C024
S11306F036FE06C08AE0989E200D1124922E11C069
S1130700EAE02E9E200D1124222EF32DF0623F2EBE
S113071008C08C3621F4832D8068382E02C08836B8
S113072041F4F70193FD859193FF81917F0181113C
S1130730B3CF982F9F7D9554933028F40C5F1F4FAF
S11307409FE399830DC0833631F0833771F083358D
S113075009F055C020C0F801808189830E5F1F4FC6
S113076088248394912C530112C02801F2E04F0E87
S1130770511CF801A080B18036FE03C0692D70E0E1
S113078002C06FEF7FEFC5014ED14C018201F32D02
S1130790FF773F2E15C0280122E0420E511CF801BC
S11307A0A080B18036FE03C0692D70E002C06FEFF7
S11307B07FEFC5012DD14C01F32DF0683F2E82014E
S11307C033FC19C0822D90E088169906A0F4B60176
S11307D080E290E033D12A94F5CFF50137FC85917E
S11307E037FE81915F01B60190E028D121102A944F
S11307F021E0821A91088114910479F7E1C08436CA
S113080011F0893639F5F80137FE07C0608171812E
S1130810828193810C5F1F4F08C060817181072E14
S1130820000C880B990B0E5F1F4FF32DFF763F2EA4
S113083097FF09C090958095709561957F4F8F4F74
S11308409F4FF0683F2E2AE030E0A30133D1882E79
S1130850861844C0853731F4232D2F7EB22E2AE02A
S113086030E025C0932D997FB92E8F36C1F018F44E
S1130870883579F0AEC0803719F0883721F0A9C0E7
S1130880E92FE061BE2EB4FE0DC0FB2DF460BF2E37
S113089009C034FE0AC0292F2660B22E06C028E003
S11308A030E005C020E130E002C020E132E0F80190
S11308B0B7FE07C060817181828193810C5F1F4FF5
S11308C006C06081718180E090E00E5F1F4FA3013C
S11308D0F1D0882E8618FB2DFF773F2E36FE0DC0F3
S11308E0232D2E7FA22E891458F434FE0BC032FC23
S11308F009C0832D8E7EA82E05C0B82CA32C03C05E
S1130900B82C01C0B92CA4FE0FC0FE01E80DF11DE6
S11309108081803321F49A2D997EA92E09C0A2FEEC
S113092006C0B394B39404C08A2D867809F0B394B6
S1130930A3FC10C0A0FE06C0B21480F4280C922CB4
S11309409B180DC0B21458F4B60180E290E076D042
S1130950B394F8CFB21418F42B1802C0982C212C9D
S1130960A4FE0FC0B60180E390E068D0A2FE16C0DA
S1130970A1FC03C088E790E002C088E590E0B601DE
S11309800CC08A2D867851F0A1FE02C08BE201C012
S113099080E2A7FC8DE2B60190E050D0891430F4D7
S11309A0B60180E390E04AD09A94F8CF8A94F30198
S11309B0E80DF11D8081B60190E040D08110F6CFA2
S11309C0222009F44ECEB60180E290E037D02A947A
S11309D0F7CFF6018681978102C08FEF9FEF2B96A8
S11309E00FB6F894DEBF0FBECDBFDF91CF911F913C
S11309F00F91FF90EF90DF90CF90BF90AF909F90BA
S1130A008F907F906F905F904F903F902F900895BC
S1130A10FC010590615070400110D8F780959095C5
S1130A208E0F9F1F0895FC016150704001900110CA
S1130A30D8F7809590958E0F9F1F08950F931F935D
S1130A40CF93DF93FB01238121FD03C08FEF9FEF41
S1130A502CC022FF16C0468157812481358142175C
S1130A60530744F4A081B1819D012F5F3F4F31832F
S1130A7020838C93268137812F5F3F4F37832683D2
S1130A8014C08B01EC01FB010084F185E02D099574
S1130A90892BE1F6D80116968D919C9117970196B2
S1130AA017969C938E931697CE01DF91CF911F9149
S1130AB00F910895FA01AA27283051F1203181F1CC
S1130AC0E8946F936E7F6E5F7F4F8F4F9F4FAF4F52
S1130AD0B1E03ED0B4E03CD0670F781F891F9A1F65
S1130AE0A11D680F791F8A1F911DA11D6A0F711D19
S1130AF0811D911DA11D20D009F468943F912AE025
S1130B00269F11243019305D3193DEF6CF0108950C
S1130B10462F4770405D4193B3E00FD0C9F7F6CF3D
S1130B20462F4F70405D4A3318F0495D31FD405205
S1130B30419302D0A9F7EACFB4E0A695979587959B
S1130B4077956795BA95C9F700976105710508957A
S1130B509B01AC010A2E0694579547953795279526
S1130B60BA95C9F7620F731F841F951FA01D0895BE
S1070B70F894FFCF23
S1130B744E252D34640032317468204344480025E2
S10D0B843164002E00252D326400B8
S9030000FC
