:1000000045C0000072C000009FC00000CCC00000CE
:1000100010C1000043C0000041C000003FC000000C
:100020003DC000003BC0000039C0000037C00000E8
:1000300035C0000033C0000031C000002FC00000F8
:100040002DC000002BC0000029C0000027C0000008
:1000500025C0000023C0000021C000001FC0000018
:100060001DC000001BC0000019C0000017C0000028
:1000700015C0000013C0000011C000000FC0000038
:100080000DC000000BC0000009C0000011241FBEFD
:10009000CFEFD0E1DEBFCDBF02D0D9C0B1CF8FEF5F
:1000A0008ABB11BA8BBB8FE089BF82E080936A0064
:1000B00078948BB381110CC08FEF8BBB2FEF81EE47
:1000C00094E0215080409040E1F700C00000F1CF63
:1000D0008BB381508BBB2FEF81EE94E02150804099
:1000E0009040E1F700C00000E4CF1F920F920FB6DE
:1000F0000F9211242F933F934F935F936F938F939E
:100100009F9380E090E020EE30E00FC0422F4095BA
:100110004BBB359527954FEF55EA6EE04150504067
:100120006040E1F700C0000001968630910574F34D
:100130009F918F916F915F914F913F912F910F9070
:100140000FBE0F901F9018951F920F920FB60F922F
:1001500011242F933F934F935F936F938F939F93AC
:1001600080E090E027E030E00FC0422F40954BBB8D
:10017000220F331F4FEF55EA6EE041505040604070
:10018000E1F700C0000001968630910574F39F915D
:100190008F916F915F914F913F912F910F900FBE73
:1001A0000F901F9018951F920F920FB60F92112467
:1001B0002F933F934F935F936F938F939F9320E081
:1001C00030E081E090E010C0482F40954BBB880F95
:1001D000991F4FEF51EE64E0415050406040E1F70D
:1001E00000C000002F5F3F4F283031056CF320E046
:1001F00030E010C095958795482F40954BBB4FEF49
:1002000051EE64E0415050406040E1F700C0000012
:100210002F5F3F4F283031056CF39F918F916F9185
:100220005F914F913F912F910F900FBE0F901F90B4
:1002300018951F920F920FB60F9211248F938FEF84
:100240008BBB8F910F900FBE0F901F901895F89455
:02025000FFCFDE
:00000001FF
