:1000000045C000004BC0000049C0000094C0000083
:10001000C5C0000043C0000041C000003FC0000058
:100020003DC000003BC0000039C0000037C00000E8
:1000300035C0000033C0000031C000002FC00000F8
:100040002DC000002BC0000029C0000027C0000008
:1000500025C0000023C0000021C000001FC0000018
:100060001DC000001BC0000019C0000017C0000028
:1000700015C0000013C0000011C000000FC0000038
:100080000DC000000BC0000009C0000011241FBEFD
:10009000CFEFD0E1DEBFCDBF02D0B3C0B1CF8FEF85
:1000A0008ABB11BA8CE089BF82E080936A007894A1
:1000B00080E090E080990DC081990BC01BBA2FEFB2
:1000C00039E648E1215030404040E1F700C00000EF
:1000D000F1CF80990CC02FE02BBB2FEF39E648E120
:1000E000215030404040E1F700C00000E3CF81994B
:1000F0000CC020EF2BBB2FEF39E648E121503040F8
:100100004040E1F700C00000D5CF009721F41BBAB2
:1001100081E090E006C0009721F08FEF8BBB80E07C
:1001200090E02FEF39E648E1215030404040E1F7C0
:1001300000C00000BFCF1F920F920FB60F92112484
:100140002F933F934F938F939F9381E090E00EC046
:10015000282F20952BBB2FEF39E648E12150304066
:100160004040E1F700C00000880F991F80389105DA
:1001700079F780958BBB8FEF99E628E1815090400D
:100180002040E1F700C000009F918F914F913F9177
:100190002F910F900FBE0F901F9018951F920F92E6
:1001A0000FB60F9211242F933F934F938F939F93EA
:1001B00080E890E00EC0282F20952BBB2FEF39E66A
:1001C00048E1215030404040E1F700C000009595E3
:1001D00087958130910579F780958BBB8FEF99E6F4
:1001E00028E1815090402040E1F700C000009F913D
:1001F0008F914F913F912F910F900FBE0F901F90B5
:060200001895F894FFCFF1
:00000001FF
